:020000040800F2
:1000000000000220C96000081D2A00081F2A0008FD
:10001000212A0008232A0008252A000800000000E1
:10002000000000000000000000000000272A000877
:10003000292A0008000000002B2A00082D2A0008A9
:1000400019610008196100081961000819610008A8
:100050001961000819610008196100081961000898
:100060001961000819610008196100081961000888
:100070001961000819610008196100081961000878
:100080001961000819610008196100081961000868
:100090001961000819610008196100081961000858
:1000A0001961000819610008196100081961000848
:1000B0001961000819610008196100081961000838
:1000C0001961000819610008196100081961000828
:1000D0001961000819610008352A0008452A00083E
:1000E0001961000819610008196100081961000808
:1000F00019610008196100081961000819610008F8
:1001000019610008196100081961000819610008E7
:1001100019610008196100081961000819610008D7
:1001200019610008196100081961000819610008C7
:1001300019610008196100081961000819610008B7
:1001400019610008196100081961000819610008A7
:100150001961000819610008196100081961000897
:100160001961000819610008196100081961000887
:1001700019610008196100081961000800000000F9
:08018000196100081961000873
:1001C0000348044B834202D0034B03B118477047E6
:1001D000AC000020AC0000200000000005480649EB
:1001E0000B1AD90F01EBA301491002D0034B03B145
:1001F00018477047AC000020AC0000200000000051
:1002000010B5064C237843B9FFF7DAFF044B13B15E
:100210000448AFF300800123237010BDAC00002020
:10022000000000001C61000808B5044B1BB1044924
:100230000448AFF30080BDE80840CFE700000000AD
:10024000B00000201C61000870B50D4E0D4D761BEE
:10025000B61006D00024013455F8043B9847A64256
:10026000F9D1094E094D761B05F058FFB61006D09E
:100270000024013455F8043B9847A642F9D170BDDB
:10028000187B0008187B00081C7B0008187B0008FE
:10029000844641EA000313F003036DD1403A41D391
:1002A00051F8043B40F8043B51F8043B40F8043B50
:1002B00051F8043B40F8043B51F8043B40F8043B40
:1002C00051F8043B40F8043B51F8043B40F8043B30
:1002D00051F8043B40F8043B51F8043B40F8043B20
:1002E00051F8043B40F8043B51F8043B40F8043B10
:1002F00051F8043B40F8043B51F8043B40F8043B00
:1003000051F8043B40F8043B51F8043B40F8043BEF
:1003100051F8043B40F8043B51F8043B40F8043BDF
:10032000403ABDD2303211D351F8043B40F8043B7F
:1003300051F8043B40F8043B51F8043B40F8043BBF
:1003400051F8043B40F8043B103AEDD20C3205D38F
:1003500051F8043B40F8043B043AF9D2043208D087
:10036000D2071CBF11F8013B00F8013B01D30B88F9
:1003700003806046704700BF082A13D38B078DD0D7
:1003800010F003038AD0C3F10403D21ADB071CBFA9
:1003900011F8013B00F8013B80D331F8023B20F813
:1003A000023B7BE7043AD9D3013A11F8013B00F84C
:1003B000013BF9D20B7803704B7843708B788370D4
:1003C00060467047F0B4860746D0541E002A3CD0E1
:1003D000CAB2034602E014F1FF3436D303F8012B0E
:1003E0009D07F8D1032C29D9CDB245EA05250F2C5C
:1003F00045EA054533D9A4F11006360903F1200773
:1004000007EB061703F1100242E9045542E90255D1
:100410001032BA42F8D1721C14F00C0F03EB021226
:1004200004F00F0613D0331F23F0030304331344E7
:1004300042F8045B9342FBD106F003042CB1C9B22D
:100440001C4403F8011B9C42FBD1F0BC70473446AE
:100450001346002CF3D1F8E714460346C2E71A46C8
:100460002646E0E7C9B200F00303002935D07BB18E
:100470000378002B57D0994252D0431C05E013F863
:10048000012B002A4DD08A424AD09A071846F6D14D
:1004900070B441EA0126046846EA064601E050F8D5
:1004A000044F86EA0405A5F10132A4F1013322EAE2
:1004B000050223EA0403134313F0803FEFD00378CF
:1004C00043B1994202D106E08B4204D010F8013FBB
:1004D000002BF9D1184670BC70474BB10378FBB1C3
:1004E000431C02E002780133D2B199071846F9D1D2
:1004F0000268A2F1013323EA020313F0803F08D11E
:1005000050F8042FA2F1013323EA020313F0803FD5
:10051000F6D0037823B110F8013F002BFBD17047D0
:100520007047104670471846704700BF0000000033
:1005300000000000000000000000000000000000BB
:1005400090F800F06DE9024520F007016FF0000C13
:1005500010F0070491F820F040F049804FF00004BB
:100560006FF00700D1E9002391F840F000F1080096
:1005700082FA4CF2A4FA8CF283FA4CF3A2FA8CF3CE
:100580004BBBD1E9022382FA4CF200F10800A4FA35
:100590008CF283FA4CF3A2FA8CF3E3B9D1E9042389
:1005A00082FA4CF200F10800A4FA8CF283FA4CF3C0
:1005B000A2FA8CF37BB9D1E9062301F1200182FA7A
:1005C0004CF200F10800A4FA8CF283FA4CF3A2FA80
:1005D0008CF3002BC6D0002A04BF04301A4612BA8E
:1005E000B2FA82F2FDE8024500EBD2007047D1E991
:1005F000002304F00305C4F100004FEAC50514F020
:10060000040F91F840F00CFA05F562EA05021CBFF0
:1006100063EA050362464FF00004A9E7174B30B5C3
:100620001C68A26D83B0054632B12846012303B091
:10063000BDE8304000F028B85020019100F0E6F805
:100640000199A0650246A0B10023C0E90033C0E9CA
:100650000233C0E904338361C0E90A33C0E90C33D3
:10066000C0E90E33C0E91033C0E9123303774362A7
:10067000DBE7034B0348572100F082F8000000201D
:10068000487A0008607A0008F0B418B307460D46AF
:1006900017F8016B01E0A64217D015F8014B002CAA
:1006A000F9D1E6B117F8015B0C4601E0002BF9D057
:1006B00014F8013B9D42F9D155B1002307F8013CE4
:1006C000176006463046F0BC704763B13846DDE738
:1006D0002F46F5E710680028D8D10646F2E73046E5
:1006E0001660F0BC7047176006460370EAE700BF6B
:1006F0000123FFF7C9BF00BF70B5141E9AB00546AD
:100700002BDB1A464FF4027300910491ADF80C30C4
:1007100013D0013C4FF6FF761E9B02946946059468
:10072000ADF80E6000F018FA421C01DA8B232B6042
:10073000009B00221A701AB070BD1E9B02944FF6E7
:10074000FF7669460594ADF80E6000F005FA431C8B
:1007500001DA8B232B601AB070BD8B2303604FF03E
:10076000FF30F8E710B5054C82B0009313460A46F7
:1007700001462068FFF7C0FF02B010BD0000002056
:1007800000B50A4C2668054685B01C46F06852B193
:10079000074B0091CDE9013206492B46224600F075
:1007A00021F800F099FF044B1A46F2E70000002000
:1007B000947A0008A47A00085862000808B5134625
:1007C0000022FFF7DDFF00BF0CB400B583B004AB1F
:1007D00053F8042B019300F03DFB03B05DF804EBEC
:1007E00002B070470EB410B583B005AB064C53F899
:1007F000042B01930146206800F02CFB03B0BDE8F8
:10080000104003B0704700BF00000020024B0146BB
:10081000186800F061B800BF00000020024B0146DC
:10082000186800F003B800BF0000002000293CD089
:1008300038B551F8043C0C1F002BB8BFE41805462E
:1008400001F036FC234B1A682AB1A2420DD9216867
:100850006018824223D0626028461C60BDE83840A0
:1008600001F028BCA34203D81A465368002BF9D1E3
:1008700011685018A04219D024D82168601883420A
:1008800006D0636054602846BDE8384001F012BCD1
:10089000D3E900030144636021605460F3E7D2E9C7
:1008A0000002014462602160D6E77047206801447D
:1008B000501883421160E6D1D3E90003014453602C
:1008C0001160E0E70C232B602846BDE8384001F0BA
:1008D000F1BB00BFC8000020F8B5CD1C25F0030512
:1008E00008350C2D38BF0C25002D064633DBA942F8
:1008F00031D82A4F01F0DCFB3A6852B113685B1B18
:1009000004D43FE023685B1B29D522465468002CA1
:10091000F8D1796800293BD02946304600F0EAFD3D
:10092000431C28D0C41C24F00304A04205D0211A83
:10093000304600F0DFFD01301DD02560304601F06B
:10094000B9FB04F10B0020F00700231DC21A01D0EF
:100950001B1AA350F8BD0C2232600020F8BD0B2BEF
:1009600005D8A242636811D05360E7E714462360BC
:100970001C442560E2E70C233046336001F09AFB0B
:100980000020F8BD0B2BF1D8536814463B60D5E727
:10099000304600F0AFFD7860BEE700BFC800002021
:1009A0002DE9F0478E681D46AE420C460B6817468F
:1009B00036D88046888910F4906F0ED13546184697
:1009C0002A46394601F00CFBA2682368961B2B448B
:1009D000A66023600020BDE8F087D1E9041606EB8D
:1009E0004606A3EB010906EBD6766B1C76104B444A
:1009F000B342324684BF1E463246430512D51146E5
:100A00004046FFF769FF824600B34A462169FFF777
:100A10003FFCA38923F4906343F08003A38106E0A5
:100A20002E46CCE7404601F047FB824650B1A6EB8C
:100A300009020AEB09036661C4F810A02360A260F2
:100A40002E46BCE721694046FFF7F0FE0C23C8F8AC
:100A50000030A38943F04003A3814FF0FF30BAE791
:100A60002DE9F04F936883B09046002B6DD0176846
:100A70008D6882460C460868083743E0A38913F462
:100A8000906F2ED0D4E9041505EB4505A0EB010BC2
:100A900005EBD5750BEB06006D100130A8422A4618
:100AA00084BF05462A465B0536D511465046FFF7FA
:100AB00013FF00283AD05A4621690190FFF7E8FB5E
:100AC000A289019B22F4906242F08002A281A5EBF0
:100AD0000B0203EB0B00656123612060A2603546C9
:100AE000B3465A46494601F07BFAD8F80830A26866
:100AF0002068551B58449E1BA5602060C8F80860FC
:100B00001EB3083757E90296AB46002EF9D0AE4225
:100B1000B4D23546B346E4E7504601F0CDFA034679
:100B20000028D4D121695046FFF780FE0C23CAF873
:100B30000030A389002243F040034FF0FF30A3812F
:100B4000C8E9012203B0BDE8F08F0020C8F8040016
:100B500003B0BDE8F08F00BF2DE9F04F90468A89C1
:100B60009FB014068B46029003D50A69002A00F054
:100B70000B81059330238DF8323098F800308E4E7B
:100B8000002120220B918DF831200127002B00F04D
:100B90008480252B00F0F680454603E0252B00F0ED
:100BA000868025466B786C1C002BF7D1B4EB080AC5
:100BB00073D04246534659460298FFF7F1FE013082
:100BC0006BD00B9B6A7853440B93002A65D00023AB
:100BD0004FF0FF3201340693CDE908338DF85B30D6
:100BE0001C93079205E0069A07FA03F313432C4679
:100BF00006932546052215F8011B304601F0A0F9A1
:100C0000AA46831B0028EED1069BD90644BF2022AA
:100C10008DF85B2021781A0744BF2B228DF85B20CA
:100C20002A2948D1059A11680432002905927EDBF1
:100C300009916178A51C2E2956D0604C03222046CC
:100C400001F07EF9002868D0001B069B402404FABE
:100C500000F00343069305F10108297858488DF800
:100C60003010062201F06CF9002866D0554B002B9D
:100C700056D005AB00935A46534B029806A9AFF3E2
:100C800000808146B9F1FF3F07D00B9B4B440B938B
:100C900098F80030002B7FF47CAFBBF80C305B067B
:100CA00054BF0B984FF0FF301FB0BDE8F08FB4EB8E
:100CB000080A8CD07DE7A1F13002092A88BFA2463C
:100CC000B9D8099B01E02C460135297803EB830351
:100CD00002EB4303A1F13002092AAA46F3D92E29D7
:100CE00004F102050993A8D19AF801102A292ED1FE
:100CF000059B9AF802101A6807920433002A05939C
:100D00000AF103050AF1020337DB2C4C03222046CB
:100D10009A4601F015F9002896D1A84655469CE759
:100D2000059B073323F0070308330593ADE74942DA
:100D300043F00203099106937BE705AB00935A4603
:100D4000214B029806A900F089FA81469AE7A1F1A1
:100D500030020023092A079301D923E05546697818
:100D600003EB830302EB4303A1F13002092A05F1EF
:100D7000010AF3D9023507935FE74FF0FF329A4635
:100D800007925AE7444622E740210393FFF7A4FD68
:100D9000039BCBF80000CBF8100030B14022CBF819
:100DA0001420E6E6AA46013547E7029A0C231360B1
:100DB0004FF0FF3078E700BFD47A0008DC7A0008F3
:100DC000E07A000800000000A10900089368013BD8
:100DD000002B936011DA10B49469A34209DB0A294D
:100DE00007D01368581C1060197008465DF8044B52
:100DF00070475DF8044B00F08FBB1368581C1060FF
:100E000019700846704700BF9BB1F8B513440F46F0
:100E100006465D1E541E01E0AC4208D03A4614F866
:100E2000011F3046FFF7D2FF431CF5D1F8BD00206B
:100E3000F8BD0020704700BF936810B5144613B981
:100E40005360184610BD00F02FFE0023C4E90133A3
:100E500010BD00BF2DE9F04F9FB08B4690461C4659
:100E6000039018B18369002B00F0B780A24B9B451B
:100E700000F0B980A14B9B4500F0C780A04B9B457B
:100E800004BF039BD3F80CB0BBF80C30180740F13B
:100E9000B280DBF81030002B00F0AD8030238DF8ED
:100EA000323098F800300594002120220B918DF803
:100EB0003120944E0127002B00F08780252B00F075
:100EC0001581454603E0252B00F0A38025466B786D
:100ED0006C1C002BF7D1B4EB080A76D0424653467F
:100EE00059460398FFF790FF01306ED00B9B6A784C
:100EF00053440B93002A68D000234FF0FF32013493
:100F00000693CDE908338DF85B301C93079205E01A
:100F1000069A07FA03F313432C4606932546052247
:100F200015F8011B304601F00BF8AA46831B002878
:100F3000EED1069BD90644BF20228DF85B20217894
:100F40001A0744BF2B228DF85B202A2966D1059A07
:100F50001168043200290592C0F29D8009916178E0
:100F6000A51C2E2973D0684C0322204600F0E8FF10
:100F7000002800F08680001B069B402404FA00F045
:100F80000343069305F10108297860488DF8301075
:100F9000062200F0D5FF002800F083805C4B002B78
:100FA00072D005AB00935A465A4B039806A9AFF38B
:100FB00000808146B9F1FF3F07D00B9B4B440B9358
:100FC00098F80030002B7FF479AFBBF80C305B064B
:100FD00018D40B981FB0BDE8F08F00F045FD464BCC
:100FE0009B457FF447AF039BD3F804B0BBF80C30AC
:100FF00018073FF54EAF5946039800F0EDFA002868
:101000003FF44CAF4FF0FF30E4E7039BD3F808B058
:101010003AE7B4EB080A3FF46FAF5FE7A1F13002A3
:10102000092A88BFA2469CD8099B01E02C460135BD
:10103000297803EB830302EB4303A1F13002092A71
:10104000AA46F3D92E2904F1020509938BD19AF807
:1010500001102A292FD1059B9AF802101A680792CD
:101060000433002A05930AF103050AF1020338DB71
:10107000254C032220469A4600F062FF00287FF4A8
:101080007AAFA84655467FE7059B073323F0070351
:101090000833059391E7494243F00203099106930F
:1010A0005DE705AB00935A461A4B039806A900F07A
:1010B000D5F881467EE7A1F130020023092A079383
:1010C00001D915E05546697803EB830302EB43032E
:1010D000A1F13002092A05F1010AF3D9023507937B
:1010E00041E74FF0FF329A4607923CE7444603E758
:1010F000AA46013537E700BF78610008586100084B
:1011000038610008D47A0008DC7A0008E07A000828
:1011100000000000090E000810B4044C13460A46F3
:10112000014620685DF8044BFFF794BE00000020E4
:101130002DE9F0470C4691460A698968DDF8208060
:101140008A42B8BF0A46C9F8002094F84310064600
:101150001F4611B10132C9F80020236899065CD5F9
:10116000D9F800200232C9F80020236813F0060FD6
:1011700019461DD1E1688A1A002AD8BF194617DD21
:1011800004F1190A002505E0E368D9F800209B1A4C
:10119000AB420CDD0123524639463046C047013090
:1011A00005F10105F0D14FF0FF30BDE8F08721686F
:1011B00094F84330003318BF01238A060AD5E1189A
:1011C0005A1C302081F84300224494F8451082F8DC
:1011D0004310023304F1430239463046C047013020
:1011E000E1D02368A268216903F00603042B1DD017
:1011F0008A4226DD4FF00009521A91441A34002524
:1012000001E04D451DDA0123224639463046C047EC
:10121000013005F10105F4D1C5E713F0060F13D035
:1012200094F84330003318BF0123D3E7D9F8000006
:10123000E3688A42A3EB000323EAE379DCDC002BBA
:10124000DCDC0020BDE8F087E168D9F800208A1ACC
:10125000002AD8BF194693DCAAE700BF2DE9F04366
:101260000C46097E85B06E29064617460C989846AE
:1012700004F1430E6DD039D9732900F0F68044D9BA
:10128000752900F00481782940F0118178232268C3
:10129000DFF858C284F845300168150651F8043B60
:1012A000016040F1A180D10744BF42F020022260DA
:1012B000002B00F093801022002184F84310606816
:1012C000A0600028C0F2C880216821F004012160DC
:1012D000002B40F0A380002840F0C0807546082A0B
:1012E00000F0AC80AEEB0503236141E0632900F020
:1012F000E5801AD8002938D0582940F0D88084F8E1
:1013000045102268DFF8E8C1C6E76F2900F0BF800A
:10131000702940F0CC802268DFF8D0C142F0200272
:101320007823226084F84530B6E7642902D0692921
:1013300040F0BD8022680368110603F1040557D50B
:10134000196805600B46002959DBDFF8A4C10A22A1
:10135000B5E70368226861691D1D056015061B68F5
:1013600002D4500600F1BD80196000237546236148
:10137000CDF800803B4603AA21463046FFF7D8FE51
:10138000013020D02A46236939463046C047013013
:1013900019D022680398E368920719D51A1A002A0F
:1013A00016DD04F11909002504E0E36803981A1A10
:1013B000AA420DDD01234A4639463046C047013076
:1013C00005F10105F1D14FF0FF3005B0BDE8F08324
:1013D0009842B8BF184605B0BDE8F083226822F0F5
:1013E00020022260102267E7500648BF9BB25AE7EE
:1013F0005106A5D5B3F9003005601946A3E7616829
:10140000A1602D200029C3F1000384F8430002DB12
:1014100022F004022260DFF8D8C00A22754600E0FC
:101420000B46B3FBF2F102FB113093421CF80000B3
:1014300005F8010DF4D2082A7FF454AF2368DB07C6
:101440007FF550AF626823699A423FF74BAF302374
:1014500005F8013C013D45E7002BDFD19CF8003049
:1014600084F8423004F1420539E703686268191DC7
:1014700001601D680021284600F062FD002832D07E
:10148000401B60602061002384F8433070E72268CD
:10149000036812F0800F03F104051AD01B68056081
:1014A0006F290CBF08220A22DFF844C004E7012399
:1014B00084F84210236104F14205E4E703681A68E6
:1014C000191D0123016004F1420584F842202361C3
:1014D000D9E712F0400F0DBF1B6805601B8805603F
:1014E000DEE7198041E76068CCE700BFFC7A0008BE
:1014F000E87A000838B5074C002305460846236003
:1015000000F0C0FF431C00D038BD2368002BFBD087
:101510002B6038BDA0060020F8B50D4614460646DF
:1015200008B1836943B3254B9C422AD0244B9C428B
:1015300029D0244B9C4208BFF468A389A269A26009
:101540001A0722D5236903B322686169D31AEDB261
:1015500099422F4629DD0133A168501C0139A16051
:101560002060157062699A4216D0A389DB0701D505
:101570000A2D11D03846F8BD00F076FA0F4B9C4288
:10158000D4D17468D9E7B468D7E72146304600F073
:1015900023F838B92369D7E72146304600F03AF9F5
:1015A0000028E7D04FF0FF37E4E72146304600F04F
:1015B00031F90028F6D122680123CDE778610008CF
:1015C0005861000838610008024B0A460146186855
:1015D000FFF7A2BF000000203B4B70B51D68064618
:1015E0000C460DB1AB69DBB1384B9C421ED0384B79
:1015F0009C424AD0374B9C4208BFEC68B4F90C209F
:1016000093B2190718D5206908B313F001022CD042
:10161000636900225B42A361A26060B3002070BDD9
:10162000284600F021FA294B9C42E0D16C68B4F9BD
:101630000C2093B21907E6D4DD063CD5580726D412
:10164000206942F00803A3819BB20028DDD103F496
:101650002072B2F5007FD8D03046214600F026FC3B
:10166000A389206913F00102D2D1990758BF62699A
:10167000A2600028D2D1B4F90C301A06CFD543F0BD
:101680004003A3814FF0FF3070BDAC68B6E7616BDB
:1016900051B104F14403994204D03046FFF7C6F833
:1016A000B4F90C200023636300232069636022F0F7
:1016B00024022060C5E742F04002092333604FF066
:1016C000FF30A28170BD00BF0000002078610008DB
:1016D000586100083861000808B5062000F098FD40
:1016E000012000F0E5FE00BF8B891A072DE9F041CB
:1016F0000C46804641D44A68002A59DDE66A002E2D
:1017000053D00022D8F80050216AC8F8002013F402
:10171000805251D101234046B047431C5FD0A3897A
:10172000E66A216A5F0705D56268636B801A0BB1B0
:10173000236CC01A024600234046B047461C45D1E0
:10174000D8F80030B4F90C20002B55D01D2B01D057
:10175000162B5AD123690022C4E90032616BC8F804
:10176000005011B304F14403994202D04046FFF700
:101770005DF800206063BDE8F0810E69AEB10D68D0
:101780000E6099070CBF63690023AD1BA3600AE0DC
:101790002B463246A76A216A4046B8470028A5EB87
:1017A000000506440ADD002DF2DC0020BDE8F081D2
:1017B0000A6C002AA2DCF8E7606DB3E7A38943F066
:1017C0004003A3814FF0FF30BDE8F0812269A38977
:1017D000226000226260DA04C0D56065BEE7D8F8F6
:1017E0000030002B9BD01D2B0CD0162B0AD0A389C8
:1017F00043F04003A381D9E72169C4E90013D3046E
:10180000ACD5EAE7C8F80050CFE742F04002A28129
:10181000CCE700BF0B6923B310B5044682B008B112
:101820008369BBB1104B994212D0104B994216D02C
:101830000F4B994208BFE168B1F90C302BB120463B
:1018400002B0BDE81040FFF74FBF002002B010BD4E
:101850006168F1E7019100F007F90199E2E7A168F9
:10186000EAE70020704700BF78610008586100086F
:101870003861000820B1054B01461868FFF7CABF60
:10188000034B0449186800F0B9BA00BF00000020FB
:10189000346100081518000800207047014900F065
:1018A000ADBA00BF151800080020704770B54A1E79
:1018B000682505FB02F50E4605F17401FFF70CF8EB
:1018C000044640B100210C30666005F168022160D9
:1018D000A060FEF777FD204670BD00BF1E4B70B5BF
:1018E0001D68AB69064643B34835D5E90134013B71
:1018F00005D51EE0013B5A1C04F1680419D0B4F967
:101900000C20002AF6D10025144B6566C4E9005569
:10191000A560C4E90455A5612946E360082204F1E5
:101920005C00FEF74FFDC4E90D55C4E91255204691
:1019300070BD2C682CB12546D7E7284600F010F87A
:10194000D2E704213046FFF7B1FF044628600028A3
:10195000F1D10C233360EAE7346100080100FFFF96
:101960002DE9F84F334B34491A68816290424FF0A9
:101970000003C0E91233036504BF012383610546F8
:10198000FFF7ACFF68602846FFF7A8FFA86028466D
:10199000FFF7A4FF6E68E86000240423F360746618
:1019A000C6E90044B460C6E90444B461214606F1C6
:1019B0005C000822FEF706FDDFF888B0AF68DFF8AC
:1019C00088A0DFF88890DFF888801C4BC6F830804C
:1019D000C6E9086BC6E90AA92146FB6008227C66B5
:1019E000C7E90044BC60C7E90444BC6107F15C007E
:1019F000FEF7E8FCEE68124BC7F83080C7E9087BB9
:101A0000C7E90AA92146F3607466C6E90044B460D8
:101A1000C6E90444B46106F15C000822FEF7D2FC7A
:101A20000123C6E9086BC6E90AA9C6F83080AB6194
:101A3000BDE8F88F346100089D1800080900010016
:101A40001200020081220008A9220008E9220008F1
:101A500009230008024B0349186800F0CFB900BF02
:101A60003461000815180008836903B978E77047E6
:101A7000704700BF704700BF704700BF704700BF8E
:101A8000024B0349186800F093B900BF0000002022
:101A900099180008024B0349186800F089B900BF83
:101AA00000000020A91800089368002B00F00281B4
:101AB0002DE9F04FB1F90C309BB20C46190783B0F9
:101AC0008246904635D522699AB313F00202D8F8BF
:101AD00000603DD00027D4F828B0D4F820C0DFF84B
:101AE000CC923D464D452B463A4628BF4B46614673
:101AF0005046D5B1D847002840F3D280D8F80830F6
:101B00001B1A07442D1AC8F80830002B00F0B780C4
:101B1000D4F820C0D4F828B04D452B463A4628BF0B
:101B20004B4661465046002DE4D1D6E90075083693
:101B3000D8E721465046FFF74FFD002840F030819E
:101B4000B4F90C30D8F800609BB213F00202C1D196
:101B500013F0010940F0B080A76820684D46002DC1
:101B600054D09A0540F1BC80AF42BB4600F2E780FA
:101B700013F4906F2FD0D4E9041707EB4707A0EBBD
:101B8000010B07EBD777681C7F105844B8423A46E0
:101B900084BF07463A465B0540F1E980114650464E
:101BA000FEF79AFE002800F0F5805A462169019060
:101BB000FEF76EFBA289019B22F4906242F0800244
:101BC000A281A7EB0B0203EB0B006761236120608E
:101BD000A2602F46AB465A46494600F001FAA26879
:101BE0002368D21B5B442F46A26023600025D8F8EF
:101BF0000830DB1BB944C8F80830002B3FD0B4F9DB
:101C00000C30A76820689BB2002DAAD1D6E90095B8
:101C10000836A4E70BF1080353E902679B46083333
:101C2000002FF9D03A460A21304600F089F9002801
:101C300053D00130A0EB06094B46D4E904122068CA
:101C4000BB4228BF3B46884203D9A5681544AB4236
:101C500019DC9A427DDC1346A56A216A3246504659
:101C6000A847051E1CDDB9EB05096BD00120D8F88B
:101C700008305B1B2E447F1BC8F8083013BB0020C4
:101C800003B0BDE8F08F31462A4600F0A9F9236879
:101C90002B44236021465046FFF7BCFD0028E2D0CC
:101CA000B4F90C3043F040034FF0FF30A38103B090
:101CB000BDE8F08F00207047334691461046174626
:101CC0004E469B46002FA5D00028B5D13A460A21A2
:101CD000304600F035F90028ABD17B1C9946ACE7C3
:101CE0002369834215D36169A94212D82E4BA76A92
:101CF0009D4294BF2B466FF000434A4693FBF1F39D
:101D0000504601FB03F3216AB847071EC8DDED1BEF
:101D10006DE7AF4228BF2F463A46494600F060F9CA
:101D2000A3682268DB1B3A44A3602260002BEED13B
:101D300021465046FFF76EFD0028E8D0B0E72F4659
:101D4000AB4648E721465046FFF764FD00288ED099
:101D5000A6E71A463146019300F042F9019BA168BB
:101D60002268C91A1A44A16022601D467BE75046CA
:101D700000F0A2F9034600287FF423AF2169504602
:101D8000FEF754FDB4F90C300C2223F08003CAF89E
:101D9000002087E70C23CAF80030B4F90C3081E743
:101DA0004FF0FF306CE700BFFEFFFF7F00FCFF7FBE
:101DB0002DE9F04110F148071BD088460026D7E9ED
:101DC0000154013D0FD4A389012B05F1FF3506D93C
:101DD000B4F90E300133204601D0C04706436B1CD6
:101DE00004F16804EFD13F68002FE8D13046BDE828
:101DF000F0813E463046BDE8F08100BF2DE9F84352
:101E000010F148071FD0884606464FF00009D7E971
:101E10000154013D11D4A389012B05F1FF3508D9E7
:101E2000B4F90E3001332146304602D0C04749EAAA
:101E300000096B1C04F16804EDD13F68002FE6D166
:101E40004846BDE8F883B9464846BDE8F88300BF78
:101E500070B50C46B1F90E10002996B016461D4615
:101E600013DB6A4600F07CFA00280EDB019A02F4CC
:101E70007042A2F50052B2FA82F252094FF4806326
:101E800000202A60336016B070BDA38900221B06B3
:101E90002A6004D540230020336016B070BD4FF493
:101EA00080630020336016B070BD00BF8A8992073E
:101EB0000B4606D501F1470201211A60C3E904214E
:101EC000704770B582B001AB6A460C460646FFF714
:101ED000BFFF009905463046FEF7FEFCB4F90C3012
:101EE00070B11649B162019A0099206043F08003F5
:101EF000A381C4E904018AB92B43A38102B070BD58
:101F00009A05FBD423F0030304F1470243F00203D4
:101F10000121A3812260C4E90421EFE73046B4F92E
:101F20000E1000F031FA10B9B4F90C30E4E7A389CF
:101F300023F0030343F001031BB2DDE79D18000803
:101F400001F0FF01102A2BDB10F0070F08D010F86A
:101F5000013B013A8B422DD010F0070F42B3F6D16E
:101F6000F0B441EA012141EA014122F007047FF087
:101F700000070023F0E80256083C85EA010586EADE
:101F8000010685FA47F5A3FA87F586FA47F6A5FA1A
:101F900087F68EB9EED1F0BC01F0FF0102F0070226
:101FA00032B110F8013B013A83EA010313B1F8D1D1
:101FB0000020704701387047002D06BF35460338B2
:101FC000073815F0010F07D1013015F4807F02BFEB
:101FD000013015F4C03F0130F0BC0138704700BF3C
:101FE0008842F0B40DD98B1883420AD9841832B1D3
:101FF000224613F8014D02F8014D9942F9D1F0BC87
:1020000070470F2A0ED80346541E002AF7D0013419
:102010000C44013B11F8012B03F8012FA142F9D127
:10202000F0BC704740EA01039B073BD1A2F11007C7
:102030003F0901F1200606EB071601F1100300F13C
:10204000100453F8105C44F8105C53F80C5C44F82E
:102050000C5C53F8085C44F8085C53F8045C44F8E2
:10206000045C1033B34204F11004EAD17B1C1B0161
:1020700012F00C0F194402F00F05034415D0043D73
:10208000AD0803EB850C1C1F0E4656F8047B44F884
:10209000047F6445F9D10135AD002B44294402F099
:1020A0000302B1E7541E0346B1E72A46ACE700BF7E
:1020B000704700BF704700BF09B3F8B51446CAB1F6
:1020C00006460D4600F088F9A04202D32F46384656
:1020D000F8BD21463046FEF7FFFB07460028F6D044
:1020E00022462946FEF7D4F830462946FEF79EFBE5
:1020F0003846F8BD2746FEF799FB3846F8BD11462D
:10210000FEF7EABB10B580210446FEF7E5FB6064EC
:1021100040B1031F00227C3043F8042F8342FBD1DF
:10212000002010BD4FF0FF3010BD00BF436C0BB15D
:1021300000207047E6E700BF1F2970B5054608D8A4
:10214000436C16460C464BB153F8240043F8246008
:1021500070BD162202604FF0FF3070BDFFF7D2FF56
:1021600008B96B6CF0E74FF0FF3070BD1F2938B530
:1021700021D8426C05460C466AB152F8213053B161
:10218000012B16D0591C10D00025204642F82450AF
:102190009847284638BD284600F070F82246014688
:1021A0002846BDE8384000F055B8162303600120EA
:1021B00038BD002038BD162303604FF0FF3038BD16
:1021C0001F2921D838B5436C05460C4683B153F816
:1021D000242003EB84034AB1511C10D0012A0CD0F7
:1021E000002520461D609047284638BD012038BD97
:1021F000FFF788FF28B96B6CE9E7032038BD0220A0
:1022000038BD4FF0FF3038BD4FF0FF30704700BF92
:10221000024B01461868FFF7A9BF00BF000000206D
:10222000024B0A4601461868FFF786BF00000020EF
:10223000034B1868436C0BB10020704762E700BF86
:1022400000000020024B01461868FFF7B9BF00BF2D
:102250000000002038B50B46074C054611461846CD
:102260000023236000F0F6F8431C00D038BD23683B
:10227000002BFBD02B6038BDA006002000F0DAB8A0
:1022800010B50C46B1F90E1000F0AEF8002803DBD3
:10229000636D0344636510BDA38923F48053A38158
:1022A00010BD00BF002070472DE9F0411646B1F97E
:1022B0000C201F46D3050C460546B1F90E1009D473
:1022C00022F48052A2813B4632462846BDE8F041C6
:1022D00000F01EB80022022300F068F8B4F90C20C8
:1022E000B4F90E10ECE700BF10B50C46B1F90E10B2
:1022F00000F05CF8A389421C0EBF23F4805343F422
:1023000080536065A38110BDB1F90E1000F016B8BE
:1023100070B50D46084C114606461A46284600235D
:10232000236000F0BDF8431C00D070BD2368002B73
:10233000FBD0336070BD00BFA006002038B5074C4D
:10234000002305460846236000F064F8431C00D0D3
:1023500038BD2368002BFBD02B6038BDA0060020C1
:1023600038B50B46074C0546114618460023236036
:1023700000F058F8431C00D038BD2368002BFBD078
:102380002B6038BDA006002038B5074C0023054659
:102390000846236000F056F8431C00D038BD23687F
:1023A000002BFBD02B6038BDA006002070B50D4679
:1023B000084C114606461A4628460023236000F0C2
:1023C00051F8431C00D070BD2368002BFBD0336054
:1023D00070BD00BFA006002051F8043C181F002B60
:1023E000BCBF0B58C018704770B50D46084C11465D
:1023F00006461A4628460023236000F03BF8431C9B
:1024000000D070BD2368002BFBD0336070BD00BFCF
:10241000A0060020024B58221A604FF0FF30704790
:10242000A0060020024B58221A604FF0FF30704780
:10243000A0060020024B58221A604FF0FF30704770
:10244000A0060020024B58221A600020704700BFEF
:10245000A0060020024B58221A604FF0FF30704750
:10246000A0060020024B58221A604FF0FF30704740
:10247000A0060020024B58221A604FF0FF30704730
:10248000A0060020044A05491368002B08BF0B462C
:102490001844106018467047D0000020A80600209D
:1024A000024B58221A604FF0FF307047A006002000
:1024B000FEE700BF53B94AB9002908BF00281CBF76
:1024C0004FF0FF314FF0FF3000F06EB9ADF1080C66
:1024D0006DE904CE00F006F8DDF804E0DDE9022342
:1024E00004B070472DE9F047089D04468C46002B48
:1024F00040F083808A42174647D9B2FA82F242B14D
:10250000C2F1200024FA00F09140974040EA010C0B
:1025100094404FEA1748230CBCFBF8F61FFA87FEDD
:1025200008FB16C143EA014306FB0EF1994209D9A3
:10253000FB1806F1FF3080F01981994240F21681B4
:10254000023E3B445B1AA4B2B3FBF8F008FB103325
:1025500044EA034400FB0EFEA64509D93C1900F1EC
:10256000FF3380F00581A64540F2028102383C44E9
:1025700040EA0640A4EB0E0400261DB1D44000231F
:10258000C5E900433146BDE8F08702B9FFDEB2FA83
:1025900082F2002A50D1CB1B4FEA174E1FFA87F860
:1025A0000126B3FBFEFC210C0EFB1C3341EA034168
:1025B00008FB0CF38B4207D979180CF1FF3002D2DB
:1025C0008B4200F2E9808446C91AA3B2B1FBFEF047
:1025D0000EFB101143EA014408FB00F8A04507D99F
:1025E0003C1900F1FF3302D2A04500F2D980184611
:1025F000A4EB080440EA0C40BFE78B4209D9002D48
:1026000000F0B1800026C5E9000130463146BDE842
:10261000F087B3FA83F6002E4AD18B4202D382426E
:1026200000F2B880841A61EB030101208C46002D72
:10263000A8D0C5E9004CA5E7C2F1200320FA03F6B3
:10264000974001FA02F04FEA174ED9403043030C8D
:10265000B1FBFEF61FFA87F80EFB161143EA0143A1
:1026600006FB08F1994204FA02F409D9FB1806F1B5
:10267000FF3C80F08D80994240F28A80023E3B44CC
:102680005B1A81B2B3FBFEF00EFB103341EA03414B
:1026900000FB08F38B4207D9791800F1FF3C73D295
:1026A0008B4271D902383944CB1A40EA064678E7A2
:1026B000C6F1200C03FA06F422FA0CF31C4320FAAC
:1026C0000CF701FA06F34FEA144E21FA0CF11F43FE
:1026D0003B0CB1FBFEF91FFA84F80EFB191143EA1B
:1026E000014109FB08FA8A4502FA06F200FA06F3EC
:1026F00008D9611809F1FF3048D28A4546D9A9F1B5
:1027000002092144A1EB0A01BFB2B1FBFEF00EFBAE
:10271000101147EA014700FB08F8B84507D9E71947
:1027200000F1FF312ED2B8452CD90238274440EAB7
:102730000940A7EB0807A0FB02894F45C64649465A
:102740001AD317D05DB1B3EB0E0267EB010707FA9E
:102750000CFCF2404CEA0202F740C5E900270026D3
:102760003146BDE8F0872E4628460BE70646E9E6E7
:102770001846FDE64345E5D2B8EB020E69EB0401CD
:102780000138DFE70846D2E760468DE78146B9E7C2
:10279000664675E730464AE7ACF1020C394413E768
:1027A00002383C4424E700BF704700BF08B500F082
:1027B0005FFA02F095FA00F053FFFAE72DE9F04FC7
:1027C0008DB000240794089409940A940B94019402
:1027D0008B4B1A6B42F010021A631A6B02F0100254
:1027E0000192019A02941A6B42F004021A631A6B66
:1027F00002F004020292029A03941A6B42F08002E1
:102800001A631A6B02F080020392039A04941A6B03
:1028100042F001021A631A6B02F001020492049A58
:1028200005941A6B42F002021A631A6B02F002025C
:102830000592059A06941A6B42F008021A631B6B04
:1028400003F008030693069B224608216D4803F017
:1028500007FBDFF8BC8101221146404603F000FB74
:10286000DFF8B0A122464FF21001504603F0F8FA0B
:102870004FF6F57307934FF00309CDF820900994B4
:1028800007A9604803F06CF908250795012608960A
:1028900009940A9407A95B4803F062F942F676337B
:1028A0000793CDF82090099407A9404603F058F902
:1028B0000796089609940A9407A9404603F050F930
:1028C00007950225089509940A944FF0050BCDF859
:1028D0002CB007A9404603F043F907964A4B0893EA
:1028E00009944A4F07A9384603F03AF948F202130F
:1028F0000793CDF82090099407A9384603F030F9E2
:1029000010230793089509940A9406220B9207A9AD
:10291000384603F025F9E0230793089509940A94B3
:10292000CDF82CB007A9384603F01AF94FF2B313CB
:102930000793CDF820900994DFF8DCB007A958463A
:1029400003F00EF9042207920894099407A9584647
:1029500003F006F940F6CF730793CDF82090099461
:1029600007A9504603F0FCF84FF2100307930896AE
:1029700009940A9407A9504603F0F2F84FF4A453BF
:102980000793089509940A9406220B9207A94046DA
:1029900003F0E6F84FF4007307930894099407A92D
:1029A000384603F0DDF84FF4E05307930895099497
:1029B0000A940A230B9307A9384603F0D1F8202381
:1029C00007930894099407A9504603F0C9F84FF4F7
:1029D000107307931223089309960A9404220B920A
:1029E00007A9584603F0BCF80795074B08930994CC
:1029F00007A9044803F0B4F80DB0BDE8F08F00BF9C
:102A00000038024000100240000012100000024096
:102A100000080240000C0240000402407047FEE73C
:102A2000FEE7FEE7FEE770477047704708B503F022
:102A300039FB08BD08B5024802F0C4FC08BD00BF60
:102A4000B403002008B5024802F0BCFC08BD00BF7A
:102A50007403002000B583B0002100910C4B5A6C28
:102A600042F480425A645A6C02F480420092009A06
:102A700001911A6C42F080521A641B6C03F080536F
:102A80000193019B072003F051FA03B05DF804FBAA
:102A90000038024010B58AB00023059306930793CF
:102AA000089309930368304A934204D02F4A934213
:102AB0002DD00AB010BD002401942D4B1A6C42F4A5
:102AC00000321A641A6C02F400320192019A0294E4
:102AD0001A6B42F001021A631B6B03F001030293AD
:102AE000029B0C2305930223069307940323089368
:102AF0000723099305A91F4803F032F8224621460F
:102B0000262003F025FA262003F056FAD1E7002408
:102B10000394174B1A6C42F480221A641A6C02F464
:102B200080220392039A04941A6B42F002021A6301
:102B30001B6B03F002030493049B4FF44063059363
:102B4000022306930794032308930723099305A9F7
:102B5000094803F005F822462146272003F0F8F93A
:102B6000272003F029FAA4E7004400400048004071
:102B700000380240000002400004024008B503682B
:102B8000114A934203D0114A93420ED008BD02F578
:102B9000FA32136C23F4003313640C210C4803F055
:102BA000C5F8262003F016FAF0E702F5F832136CA8
:102BB00023F4802313644FF44061064803F0B6F811
:102BC000272003F007FAE1E70044004000480040F6
:102BD000000002400004024030B595B030220021D0
:102BE00008A8FDF7EFFB00240394049405940694D1
:102BF000079401941C4B1A6C42F080521A641B6CAF
:102C000003F080530193019B0294184B1A6842F41D
:102C100080421A601B6803F480430293029B0123E5
:102C200008934FF48033099302250E954FF48003E7
:102C30000F93082310934FF4A87311931295072351
:102C4000139308A802F05AFC0F23039304950594EC
:102C50004FF4A05306934FF480530793052103A824
:102C600002F0A8FE15B030BD0038024000700040F0
:102C700008B503F0FDF9FFF7AFFFFFF79FFD00F088
:102C800027F800F03FF8074801F0A2FE20B100F05D
:102C900071F800F0A1F808BD0349044800F097F866
:102CA000F5E700BF7403002098610008B40300201A
:102CB00070470000054BD3F8882042F47002C3F837
:102CC00088204FF000629A60704700BF00ED00E07E
:102CD00008B50A480A4B03604FF4E1334360002310
:102CE0008360C36003610C2242618361C36102F0AF
:102CF00065F900B908BDFFF7DBFFFBE7B40300206F
:102D00000044004008B50A480A4B03604FF4E13321
:102D1000436000238360C36003610C2242618361CE
:102D2000C36102F04BF900B908BDFFF7C1FFFBE733
:102D300074030020004800400FB400B5C3B044AB9A
:102D400053F8042B01934FF4807102A8FDF70AFD9C
:102D500002A8FDF7F5FB4FF0FF3382B202A9044849
:102D600002F073F943B05DF804EB04B0704700BFA4
:102D7000B403002008B50948FFF7DEFF0848FFF755
:102D8000DBFF0848FFF7D8FF0748FFF7D5FF0748E4
:102D9000FFF7D2FF0648FFF7CFFF08BD8C6200089F
:102DA000D4610008F8610008286200085C6200082D
:102DB0009062000810B500231A460133DBB28C5C28
:102DC000002CF9D14FF0FF3302F03FF910BD08B5E8
:102DD000FFF7F0FF08BD000010B5474C47492046FB
:102DE000FFF7F5FF46492046FFF7F1FF454920462A
:102DF000FFF7EDFF44492046FFF7E9FF434920462E
:102E0000FFF7E5FF42492046FFF7E1FF4149204631
:102E1000FFF7DDFF40492046FFF7D9FF3F49204635
:102E2000FFF7D5FF3E492046FFF7D1FF3D49204639
:102E3000FFF7CDFF3C492046FFF7C9FF3B4920463D
:102E4000FFF7C5FF3A492046FFF7C1FF3949204641
:102E5000FFF7BDFF38492046FFF7B9FF3749204645
:102E6000FFF7B5FF36492046FFF7B1FF3549204649
:102E7000FFF7ADFF34492046FFF7A9FF334920464D
:102E8000FFF7A5FF32492046FFF7A1FF3149204651
:102E9000FFF79DFF30492046FFF799FF2F49204655
:102EA000FFF795FF2E492046FFF791FF2D49204659
:102EB000FFF78DFF2C492046FFF789FF2B4920465D
:102EC000FFF785FF2A492046FFF781FF2949204661
:102ED000FFF77DFF28492046FFF779FF2749204665
:102EE000FFF775FF26492046FFF771FF2549204669
:102EF000FFF76DFF10BD00BFB40300208C62000817
:102F0000C8620008EC62000808630008206300083B
:102F100038630008546300086C6300089C63000871
:102F2000B8630008D0630008E86300080464000880
:102F3000286400084864000874640008A06400085D
:102F4000BC640008D8640008F86400082065000824
:102F5000486500085C650008706500088C6500081D
:102F6000A8650008C4650008E0650008F865000869
:102F70001C6600084066000860660008A866000835
:102F8000EC66000808670008002303E00022CA542A
:102F90000133DBB2062BF9D920B930300870002399
:102FA0004B707047104B834204D9104AA2FB032395
:102FB000DB08F8E7092BF0D910B4B0FBF3F2D2B27A
:102FC00002F1300401F8014B03FB1200074AA2FB97
:102FD0000323DB08092BF0D83030087000234B7036
:102FE0005DF8044B704700BF40420F00CDCCCCCC05
:102FF00010B403290AD8DFE801F00209050701240B
:1030000000220AE00424FBE70824F9E70224F7E79A
:1030100037330D498B540132D2B2A2420DD2A31ADA
:10302000013B99000F238B400340CB40DBB2092BBF
:10303000EED8303304498B54EDE703480023835422
:103040005DF8044B704700BFD400002010B4034665
:1030500010464C1EA4B251B113F8011B4140C9B235
:10306000044A32F8112082EA10202146F1E75DF887
:10307000044B70471C67000808B5FFF7E7FF4FF2E5
:10308000B803984214BF0020012008BD074A5369C5
:103090009269934208DA10B4044AD1695C1C546105
:1030A000C8545DF8044B7047704700BFE000002033
:1030B000074A53689268934208DA10B4044AD16808
:1030C0005C1C5460C8545DF8044B7047704700BFE7
:1030D000E0000020054B00221A605A60DA609A6016
:1030E00018615A61DA619A61704700BFE000002000
:1030F00070B515461C46174BD86100225A6199617C
:10310000C020FFF7C3FF07E0DB20FFF7BFFFDC2095
:10311000FFF7BCFF01353446661E74B12878C0281D
:10312000F2D0DB2802D0FFF7B1FFF3E7DB20FFF797
:10313000ADFFDD20FFF7AAFFECE7C020FFF7A6FFF9
:10314000044B58699B69984200DC70BD4FF0FF301A
:10315000FBE700BFE0000020064B1B683BB9054BB6
:103160001B6923B1034BD860996001221A600120CA
:10317000704700BFE000002070B5044617E0C0288B
:1031800004D0DB282FD0FFF793FF0FE0234B5968C3
:1031900049B11B691BB3214EF0689847F060D8B164
:1031A0001E4B01221A601D4B00225A6029464D1EFB
:1031B000002932D014F8010B184B1B68022BDED00B
:1031C000032B14D0012BF1D1C028EFD1134B0022D7
:1031D0005A6002221A60E9E700223260E3E70F4BEF
:1031E00000221A60DFE70D4B03221A60DEE7DC28BD
:1031F00005D0DD280AD0094B01221A60D6E7C0208D
:10320000FFF756FF054B02221A60CFE7DB20FFF7DE
:103210004FFF024B02221A60C8E770BDE000002099
:1032200000B583B0064A6B4692E8030083E80300CA
:1032300008221946252001F01DFC03B05DF804FBAF
:103240001C69000808B5024801F0E7FE002008BD2F
:103250007403002010B5416082600022C2600361E7
:1032600001F0ACFE08B9012010BDFFF7EBFFFBE752
:1032700010B50C464FF0FF338AB20146034801F007
:10328000E4FE012800D10024204610BD7403002074
:1032900000B583B08DF807004FF0FF3301220DF128
:1032A0000701054801F0D1FE012803D1002003B039
:1032B0005DF804FB0120FAE77403002010B50C460A
:1032C0004FF4FA738AB20146034801F02FFF012838
:1032D00000D10024204610BD740300200FB400B5B7
:1032E000C3B0449AB2B145AB01934FF4807102A8C8
:1032F000FDF738FA02A8FDF723F94FF0FF3382B249
:1033000002A9054801F0A1FE012043B05DF804EBDD
:1033100004B070470020F8E7B403002008B5034864
:10332000FFF7DCFF01F067FC08BD00BF286900085B
:1033300008B50348FFF7D2FF002001F0FEFB08BDEF
:103340003869000808B50348FFF7C8FF01F0EEFB35
:1033500008BD00BF4869000808B5242203490120C0
:1033600001F088FB0248FFF7B9FF08BD64000020A8
:103370005869000808B50448FFF7B0FF002211465D
:103380001D2001F077FB08BD6869000808B50448F6
:10339000FFF7A4FF00221146212001F06BFB08BDBE
:1033A0007869000808B518220349052001F062FB7E
:1033B0000248FFF793FF08BD8800002088690008D5
:1033C00008B50348FFF78AFF01F03FFC08BD00BFC6
:1033D0009869000800B583B00F48FFF77FFF052309
:1033E0008DF8003010238DF80130C7238DF802309E
:1033F00000238DF8033007228DF8042012238DF866
:1034000005300F238DF806306946192001F032FB94
:1034100003B05DF804FB00BFB069000808B50448BC
:10342000FFF75CFF002211461B2001F023FB08BDC3
:10343000C069000808B50448FFF750FF0022114694
:10344000352001F017FB08BDD069000808B5034816
:10345000FFF744FF01F090FB08BD00BFE4690008DE
:1034600008B50348FFF73AFF032001F073FB08BDDE
:10347000F469000808B50348FFF730FF002001F0A9
:1034800069FB08BD046A000808B50448FFF726FF79
:1034900000221146272001F0EDFA08BD146A000849
:1034A00008B50348FFF71AFF01F06DFB08BD00BF28
:1034B000206A000808B50348FFF710FF01F078FB09
:1034C00008BD00BF346A000800B583B00548FFF7A7
:1034D00005FF054B019301A801F071FB03B05DF8F6
:1034E00004FB00BF406A00089E17464908B5034820
:1034F000FFF7F4FE01F04EFB08BD00BF4C6A000868
:1035000000B583B00948FFF7E9FE01238DF80430C8
:103510000C238DF805301E238DF806308DF807300A
:1035200001A801F03EFB03B05DF804FB5C6A0008F3
:1035300008B50348FFF7D2FE01F080FB08BD00BFCD
:103540006C6A000808B50348FFF7C8FE01F06FFB7E
:1035500008BD00BF7C6A000808B50348FFF7BEFE3F
:1035600001F042FB08BD00BF8C6A000808B50348A3
:10357000FFF7B4FE01F031FB08BD00BFA46A0008EC
:1035800008B50348FFF7AAFE01F020FB08BD00BF05
:10359000C06A000800B583B00D48FFF79FFE062201
:1035A0008DF8002071238DF8013004238DF802304E
:1035B000D2238DF80330FB238DF804302E238DF8B1
:1035C00005306946212001F047FB03B05DF804FB9C
:1035D000D06A000800B583B00D48FFF77FFE67236F
:1035E0008DF8003001228DF8012010228DF8022084
:1035F0008DF8033000238DF80430FF238DF805305B
:1036000006226946232001F049FB03B05DF804FB64
:10361000E06A000808B50348FFF760FE01F0F2FA1F
:1036200008BD00BFF06A000808B50348FFF756FE62
:1036300001F0EFFA08BD00BF006B000800B583B0D1
:1036400000238DF807300548FFF748FE0DF107000D
:1036500001F0E6FA03B05DF804FB00BF106B000850
:10366000584B93F83930DBB2202B00D0704710B59F
:103670000D215548FCF7F6FE00283FD0524C534927
:103680002046FCF7CBFF2378203B552B2ED8DFE8D4
:1036900003F0952D2D2D2D2D2D2D2D2D6E742D6896
:1036A0002D2D2D2D2D2D2D2D2D2D2D2D2D2D2D2D4A
:1036B0002D2D2D412D3E47622D562D2D2D532D2D77
:1036C0002B3B2D8F44504A2D2D922D2D8C2D2D2DA1
:1036D0002D2D2D712D892D657D2D2D804D2D2D5C50
:1036E0005F59832D7A776B86FFF718FE354801F016
:1036F000C0FD402200213448FCF764FE40223249DC
:10370000304801F088FD10BDFFF712FEEEE7FFF72D
:1037100019FEEBE7FFF720FEE8E7FFF72BFEE5E7F2
:10372000FFF734FEE2E7FFF73DFEDFE7FFF748FE75
:10373000DCE7FFF74FFED9E7FFF770FED6E7FFF7AC
:1037400079FED3E7FFF782FED0E7FFF789FECDE7EA
:10375000FFF790FECAE7FFF797FEC7E7FFF760FDA8
:10376000C4E7FFF79DFEC1E7FFF7A4FEBEE7FFF742
:10377000ABFEBBE7FFF7BAFEB8E7FFF7C1FEB5E760
:10378000FFF7D6FEB2E7FFF7DDFEAFE7FFF7E4FE97
:10379000ACE7FFF7EBFEA9E7FFF7F2FEA6E7FFF7BE
:1037A000F9FEA3E7FFF716FFA0E7FFF733FF9DE75A
:1037B000FFF73AFF9AE7FFF741FF97E7FFF70CFBA8
:1037C00094E700BFB4030020F40300203C6A000823
:1037D00038B5032904D80E4B586800B1023038BD03
:1037E0008CB24FF6FF722146FFF746FC50B1084BF2
:1037F0009B68002BEFD0064D6868211F0180984719
:103800006860E8E7024A136801331360E3E700BF2A
:103810000001002070B5054614460A4B00261E60C4
:1038200099605A600848FFF755FC4FF49871A01C46
:10383000FFF792FC334632464FF4E1312846FFF75A
:1038400009FD70BD00010020D137000880B338B5F4
:103850000446054635F8021B02314FF6FF7289B265
:103860002846FFF7F3FBC24392B22388E1180A719E
:10387000591C0C44120A227104332A4640F2662174
:103880000C48FFF735FC45B285B9002038BDC02093
:10389000FFF7FEFC0134E4B2272CF8D9294605488D
:1038A000FFF7E6FC0028F1D00120EFE70024F3E762
:1038B000002070470C01002000B5C1B0002100912C
:1038C000FB2201A8FCF77EFDFF216846FFF7F6FC0E
:1038D00010B941B05DF804FB01466846FFF74CFCA7
:1038E000F7E7000010B5037933B10446012B07D088
:1038F0001048FFF7F3FC10BD0F48FFF7EFFCFAE7A5
:103900000E48FFF7EBFC61790D48FFF7E7FCA17962
:103910000C48FFF7E3FCE1790B48FFF7DFFC217A65
:103920000A48FFF7DBFC04F109010948FFF7D6FC60
:10393000E1E700BFEC6B0008206B0008486B000853
:103940008C6B0008A86B0008B46B0008C06B000803
:10395000D46B000810B5037963B10446012B0DD078
:1039600013F0020F23D113F0040F24D01448FFF7F3
:10397000B5FC02E01348FFF7B1FC10BD1248FFF799
:10398000ADFC61791148FFF7A9FCA1791048FFF758
:10399000A5FCE1790F48FFF7A1FC217A0E48FFF75B
:1039A0009DFC04F109010D48FFF798FCE5E70C4880
:1039B000FFF794FCE1E70B48FFF790FCDDE700BF61
:1039C000CC6C0008106C0008386C00087C6C000897
:1039D000A86B0008B46B0008C06B0008D46B00082B
:1039E000986C0008046D000808B503792BB1012B11
:1039F00007D00748FFF772FC08BD0648FFF76EFCCA
:103A0000FAE783794279C1790348FFF767FCF3E766
:103A10007C6D0008286D0008486D000830B585B041
:103A2000037933B1012B12D01448FFF757FC05B0CE
:103A300030BD4379817943EA0123C179027A41EAB1
:103A4000022143EA01410E48FFF748FCEFE74479C1
:103A5000817944EA0124C179037A41EA0321C37AD6
:103A6000027B457B029501920093837A427A44EA75
:103A700001410448FFF732FCD9E700BF386E000867
:103A8000A06D0008D46D000838B50C461546636873
:103A9000C3B12368AB4201D00834F8E7FFF71EFC3E
:103AA0000948FFF71BFC01212846FFF7A1FAFFF7A1
:103AB00015FC0648FFF712FC6068FFF70FFC04488E
:103AC000FFF70CFC38BD00BF586E0008686E000898
:103AD0008C62000810B50446027910491048FFF7BF
:103AE000D3FF2379032B00D010BD637913F0010FAE
:103AF0000BD1637913F0020F0BD1637913F0200F10
:103B0000F2D00848FFF7EAFBEEE70748FFF7E6FBCD
:103B1000EFE70648FFF7E2FBEFE700BFE0790008B8
:103B20006C6E0008B46E0008886E00089C6E000879
:103B300038B5054602790C490C48FFF7A5FF2B79EB
:103B400003B138BD01242B88A342FAD92B19197966
:103B50000748FFF7C3FB631C2B4419790548FFF79F
:103B6000BDFB0234A4B2EEE7E0790008C86E00089D
:103B7000E46E0008F46E000838B5054602790D4978
:103B80000D48FFF781FF2B7903B138BD0B48FFF7D4
:103B9000A5FB01242B88A34207D92B1919790848C2
:103BA000FFF79CFB0134A4B2F4E70648FFF796FB4D
:103BB000EBE700BFE0790008086F0008246F0008F9
:103BC000346F00088C62000810B50446027906497B
:103BD0000648FFF759FF237903B110BD6179044806
:103BE000FFF77CFBF9E700BFE07900083C6F0008B5
:103BF000586F000810B50446027911491148FFF7C3
:103C000043FF237903B110BD0F48FFF767FB6379CA
:103C1000012B0DD0022B0FD01BB10C48FFF75EFB20
:103C200002E00B48FFF75AFB0A48FFF757FBEAE7A9
:103C30000948FFF753FBF7E70848FFF74FFBF3E7A7
:103C4000E07900086C6F0008886F0008D86F0008E2
:103C50009C6F00088C620008AC6F0008C06F000801
:103C600010B5044602790A490A48FFF70DFF237987
:103C700003B110BD0848FFF731FB01216079FFF760
:103C8000B7F9FFF72BFB0548FFF728FBF1E700BF6B
:103C9000B0790008EC6F0008007000088C62000822
:103CA00070B582B0054603885E1EB6B2027912F086
:103CB000010F01D09E1FB6B29EB92B7913F0020FEF
:103CC0002CD02148FFF70AFB2B7913F0040F29D0E1
:103CD0001E48FFF703FB2B7913F0010F26D102B02A
:103CE00070BD1B48FFF7FAFA01216879FFF780F9E8
:103CF000FFF7F4FA1748FFF7F1FA0123B34209D2AC
:103D00005C1C2B1901211879FFF772F9FFF7E6FA0D
:103D1000A3B2F3E71048FFF7E1FACEE70F48FFF749
:103D2000DDFAD1E70E48FFF7D9FAD4E7013635447A
:103D300029796A79AB79E8792C7A0194009009485D
:103D4000FFF7CCFACBE700BF40700008787000089E
:103D5000107000082C7000088C6200085C7000086D
:103D60008C700008A070000870B582B0054603880A
:103D70005E1EB6B2027912F0010F01D09E1FB6B2DC
:103D80009EB92B7913F0020F24D01D48FFF7A6FA35
:103D90002B7913F0040F21D01A48FFF79FFA2B79E3
:103DA00013F0010F1ED102B070BD69791648FFF7FC
:103DB00095FA0123B34209D25C1C2B190121187911
:103DC000FFF716F9FFF78AFAA3B2F3E70F48FFF7F8
:103DD00085FAD6E70E48FFF781FAD9E70D48FFF7D5
:103DE0007DFADCE70136354429796A79AB79E879DF
:103DF0002C7A019400900848FFF770FAD3E700BFCF
:103E00004070000878700008D07000088C620008CC
:103E10005C7000088C700008A070000870B582B05B
:103E2000054603885E1EB6B2027912F0010F01D07A
:103E30009E1FB6B29EB92B7913F0020F23D01C48F7
:103E4000FFF74CFA2B7913F0040F20D01948FFF735
:103E500045FA2B7913F0010F1DD102B070BD164841
:103E6000FFF73CFA0023B34209D25C1C2B19012155
:103E70001879FFF7BDF8FFF731FAA3B2F3E70F485F
:103E8000FFF72CFAD7E70E48FFF728FADAE70D48D4
:103E9000FFF724FADDE70136354429796A79AB79F1
:103EA000E8792C7A019400900748FFF717FAD4E7D5
:103EB0001C71000854710008FC7000088C62000836
:103EC0003871000868710008A070000830B583B030
:103ED000044600230093019302791A491A48FFF718
:103EE000D3FD23790BB103B030BD6279174918486F
:103EF000FFF7CAFDD4F806501648FFF7EFF9032183
:103F00002846FFF775F8FFF7E9F91348FFF7E6F9D8
:103F1000D4F80A401148FFF7E1F903212046FFF7E2
:103F200067F8FFF7DBF90E48FFF7D8F96946204636
:103F3000FFF72AF86846FFF7D1F90A48FFF7CEF9EC
:103F4000D1E700BFB07900087C71000870790008E3
:103F500098710008A47100088C620008B87100080C
:103F6000C87100088C74000870B584B00446002342
:103F700002930393019302799A499B48FFF784FDCA
:103F800023790BB104B070BD63798DF8043002A9B8
:103F9000D8B2FEF7F9FF9548FFF7A0F902A8FFF79E
:103FA0009DF99348FFF79AF9D4F80600019002A909
:103FB000FEF7EAFF8F48FFF791F902A8FFF78EF9A5
:103FC0008D4D2846FFF78AF9D4F80A3001938B48C3
:103FD000FFF784F90198800E02A900F5FA60FEF758
:103FE000D3FF02A8FFF77AF9854E3046FFF776F93E
:103FF00002A90198C0F30330FEF7C6FF02A8FFF73D
:104000006DF93046FFF76AF902A90198C0F34450F0
:10401000FEF7BAFF02A8FFF761F97A48FFF75EF9E9
:10402000BDF8060002A900F01F00FEF7ADFF02A8D0
:10403000FFF754F9744E3046FFF750F902A9019882
:10404000C0F38510FEF7A0FF02A8FFF747F930463E
:10405000FFF744F902A9019800F03F00FEF794FF32
:1040600002A8FFF73BF96948FFF738F9E389ADF893
:10407000043002A998B2FEF787FF6548FFF72EF9D2
:1040800002A8FFF72BF92846FFF728F9238AADF895
:10409000043002A998B2FEF777FF5E48FFF71EF9D9
:1040A00002A8FFF71BF95C48FFF718F96069019057
:1040B00002A9FEF769FF5948FFF710F902A8FFF7B8
:1040C0000DF92846FFF70AF9A069019002A9FEF749
:1040D0005BFF5348FFF702F902A8FFF7FFF82846F5
:1040E000FFF7FCF8E069019002A9FEF74DFF4D488B
:1040F000FFF7F4F802A8FFF7F1F82846FFF7EEF80B
:10410000206A019002A9FEF73FFF4748FFF7E6F853
:1041100002A8FFF7E3F82846FFF7E0F8606A01908D
:1041200002A9FEF731FF4148FFF7D8F802A8FFF7D0
:10413000D5F82846FFF7D2F8A06A019002A9FEF749
:1041400023FF3B48FFF7CAF802A8FFF7C7F8284645
:10415000FFF7C4F8E06A019002A9FEF715FF3548A1
:10416000FFF7BCF802A8FFF7B9F82846FFF7B6F842
:10417000206B019002A9FEF707FF2F48FFF7AEF86A
:1041800002A8FFF7ABF82846FFF7A8F8606B01908C
:1041900002A9FEF7F9FE2948FFF7A0F802A8FFF7E9
:1041A0009DF82846FFF79AF8A06B019002A9FEF748
:1041B000EBFE2348FFF792F802A8FFF78FF8284696
:1041C000FFF78CF8E06B019002A9FEF7DDFE1D48B9
:1041D000FFF784F802A8FFF781F82846FFF77EF87A
:1041E000D0E600BFB0790008CC710008E471000887
:1041F00000720008087200088C620008187200083B
:10420000287200082C72000830720008347200080E
:10421000387200084872000858720008607200087E
:104220006C720008787200088472000894720008AA
:10423000A4720008B4720008C4720008D4720008A6
:10424000E4720008F072000830B583B00446002321
:1042500000930193027929492948FFF715FC237936
:104260000BB103B030BDD4F805402648FFF736F84F
:10427000A00E694600F5FA60FEF786FE6846FFF775
:104280002DF8214D2846FFF729F86946C4F303307D
:10429000FEF77AFE6846FFF721F82846FFF71EF87A
:1042A0006946C4F34450FEF76FFE6846FFF716F800
:1042B0001648FFF713F86946C4F30440FEF764FE9E
:1042C0006846FFF70BF8124D2846FFF707F86946D6
:1042D000C4F38510FEF758FE6846FEF7FFFF284638
:1042E000FEF7FCFF694604F03F00FEF74DFE68460E
:1042F000FEF7F4FF0748FEF7F1FFB2E7B0790008D8
:10430000FC72000810730008287200082C72000864
:10431000307200083472000810B582B004460023E1
:1043200000930193027910491048FFF7ADFB237900
:104330000BB102B010BDD4F8054069462046FEF727
:1043400023FE0B48FEF7CAFF03212046FEF750FE6E
:10435000FEF7C4FF0748FEF7C1FF6846FEF7BEFF41
:104360000548FEF7BBFFE4E7E07900081C7300088E
:10437000A4710008C87100088C74000830B583B0BF
:10438000044600230093019302794E494E48FFF7FB
:104390007BFB4E48FEF7A2FF69466079FEF7F4FD0D
:1043A0006846FEF79BFF4A4D2846FEF797FF4948AF
:1043B000FEF794FF6946A079FEF7E6FD6846FEF732
:1043C0008DFF2846FEF78AFF4348FEF787FFE37913
:1043D00013F0010F5ED04148FEF780FF4048FEF722
:1043E0007DFFE37913F0020F58D03C48FEF776FFCB
:1043F0003C48FEF773FFE37913F0040F52D03A48BC
:10440000FEF76CFF3948FEF769FFE37913F0400FC0
:104410004CD03748FEF762FF3648FEF75FFF94F94D
:104420000730002B46DB3448FEF758FF3348FEF7D1
:1044300055FF237A13F0010F40D03148FEF74EFFAD
:104440003048FEF74BFF6946607AFEF79DFD6846EF
:10445000FEF744FF1E4D2846FEF740FF2A48FEF7B0
:104460003DFF6946A07AFEF78FFD6846FEF736FFEE
:104470002846FEF733FF2548FEF730FF6946E07A0D
:10448000FEF782FD6846FEF729FF2846FEF726FF65
:1044900003B030BD1848FEF721FF9FE71648FEF72E
:1044A0001DFFA5E71A48FEF719FFABE71948FEF70D
:1044B00015FFB1E70948FEF711FFB7E71648FEF709
:1044C0000DFFBDE7E0790008387300085473000859
:1044D0008C62000860730008787300088873000815
:1044E000A0730008B073000858650008C073000886
:1044F000D0730008E873000894730008FC73000888
:10450000107400082474000838740008447400080B
:10451000BC730008DC7300081C74000830B583B05D
:10452000044600230093019302792C492C48FFF79D
:10453000ABFA23790BB103B030BD61792948FEF79E
:10454000CDFE6379022B41D0032B43D0012B03D046
:104550002548FEF7C3FEEEE72448FEF7BFFED4F879
:1045600006502348FEF7BAFE03212846FEF740FD19
:10457000FEF7B4FE1F4D2846FEF7B0FE6946A07A4E
:10458000FEF702FD1C48FEF7A9FE6846FEF7A6FEF0
:104590002846FEF7A3FE6946E07AFEF7F5FC1748C9
:1045A000FEF79CFE6846FEF799FE1548FEF796FE5C
:1045B0006946207BFEF7E8FC1248FEF78FFE68464E
:1045C000FEF78CFE2846FEF789FEB4E70E48FEF79C
:1045D00085FEC4E70D48FEF781FEC0E7E0790008DC
:1045E0006C6F000854740008A4740008707400080C
:1045F000B87400088C620008CC740008D4740008F9
:10460000E0740008E87400088074000890740008E2
:1046100010B50446C378023B3C2B00F29480DFE8DF
:1046200003F01F9292922E929292344C4F923A4003
:104630005292434955926192929265926892259264
:1046400092922892809271926E928692585E929285
:1046500092927A9277926B92929292928C92890035
:1046600002793F493F48FFF70FFA10BDFFF754FEAC
:10467000FBE702793A493C48FFF706FAF5E7027989
:1046800037493A48FFF700FAEFE7027934493848EA
:10469000FFF7FAF9E9E7027931493648FFF7F4F90B
:1046A000E3E7FFF71FF9E0E702792D493248FFF70A
:1046B000EBF9DAE7FFF74EF9D7E7FFF795F9D4E71B
:1046C000FFF7ACF9D1E7FFF7EBFACEE7FFF74CFBCA
:1046D000CBE7027922492948FFF7D6F9C5E7FFF76A
:1046E0009DFBC2E72648FEF7F9FDBEE7FFF7F2F9AA
:1046F000BBE7FFF743FEB8E7FFF71AFAB5E7FFF7A6
:104700003BFAB2E7027916491E48FFF7BDF9ACE75C
:10471000FFF75AFAA9E7027911491B48FFF7B4F9E4
:10472000A3E702790E491948FFF7AEF99DE7FFF7B5
:10473000F5FE9AE7FFF75EFA97E702790849144811
:10474000FFF7A2F991E71348FEF7C8FD0121E078D1
:10475000FEF74EFCFEF7C2FD0F48FEF7BFFD84E7F3
:10476000E0790008007500081C750008387500081D
:104770005075000868750008807500089875000875
:10478000B0750008D0750008E875000800760008CC
:1047900018760008307600088C62000810B594B0D6
:1047A0000446027917491848FFF76EF923790BB1CF
:1047B00014B010BD6279A1791448FEF78FFDE3793A
:1047C000217A43EA01211248FEF788FD22466B4612
:1047D00052F8090F516803C312891A8000238DF81B
:1047E0000A3069460B48FEF779FD23880F2BDFD985
:1047F000234400221A7104F113010748FEF76EFDED
:10480000D6E700BFB079000864760008807600081B
:1048100094760008A8760008BC76000830B585B00C
:104820000446002302930393019302792649274803
:10483000FFF72AF923790BB105B030BD2448FEF704
:104840004DFD01216079FEF7D3FBFEF747FD214DB9
:104850002846FEF743FD2048FEF740FD0121A079E0
:10486000FEF7C6FBFEF73AFD2846FEF737FD34F8A3
:10487000072FA378ADF804208DF806301748FEF70F
:104880002DFD02A99DF80400FEF77EFB02A8FEF7AD
:1048900025FD134C2046FEF721FD02A99DF80500D9
:1048A000FEF772FB02A8FEF719FD2046FEF716FD83
:1048B00002A99DF80600FEF767FB02A8FEF70EFDB1
:1048C0000848FEF70BFDB7E7B0790008D47600087A
:1048D000EC7600088C620008007700081477000866
:1048E000307200083472000808B5C1788B1E342B72
:1048F0004CD8DFE803F01B4B214B244B274B4B4B91
:10490000484B334B304B4B4B4B4B4B4B2D4B4B4B4B
:104910004B4B4B4B4B4B4B4B4B4B4B4B4B4B4B4BE7
:104920004B4B4B4B4B4B3C4B424B3900027919499B
:104930001948FFF7A9F808BDFFF7C8FAFBE7FFF72A
:104940002DFFF8E7027913491448FFF79DF8F2E7C5
:10495000FFF70AFBEFE7FFF777FCECE702790D4979
:104960000F48FFF791F8E6E7FFF758FFE3E7027912
:1049700008490C48FFF788F8DDE7027905490A483D
:10498000FFF782F8D7E7FFF76BF9D4E70748FEF7A0
:10499000A5FCD0E7B0790008287700080876000861
:1049A000387700084C7700086477000880770008A3
:1049B00008B58378012B03D0102B04D0034808BD21
:1049C000FFF792FFFAE7FFF723FEF7E768050020FD
:1049D00008B5024A0249FEF71DFF08BD6805002020
:1049E000B149000838B504460D46214801238370BB
:1049F000C4704FF4967200210430FBF7E3FC013CD5
:104A0000342C33D8DFE804F01B321B321B321B324C
:104A100029321B3225321B323232323232321B32D1
:104A20003232323232323232323232323232323266
:104A3000323232323232323225321B321B000C4BD0
:104A400000221A800A4B1A885AB90948FEF7FEFE5E
:104A500038BD074B04221A80F4E7054B01221A8067
:104A6000F0E72946181DFBF713FCEEE70220EFE7FD
:104A70003404002070B504460E4615462A4810231B
:104A80008370C4704FF4967200210430FBF79AFCD7
:104A9000013C3C2C46D8DFE804F01F454545314534
:104AA00045452945454535454545354545454545F2
:104AB00045453845294529454545294529453C452C
:104AC000294529453545454545452D45294529452E
:104AD000454545452D452900134B24221A80124B8C
:104AE0001A88D2B91048FEF7B1FE70BD0E4B0022F5
:104AF0001A80F4E70C4B01221A80F0E70A4B1822C7
:104B00001A80ECE7084B1D80E9E7074B07221A8063
:104B1000E5E7054B08221A80E1E73146181DFBF74F
:104B2000B7FBDFE70220E0E73404002008B50022ED
:104B300011463320FFF79EFF08BD00B583B08DF806
:104B4000070001220DF107013120FFF793FF03B0A9
:104B50005DF804FB00B583B08DF80700012808D884
:104B600001220DF107010920FFF73CFF03B05DF8BA
:104B700004FB4FF0FF30F9E708B5002211460B2087
:104B8000FFF730FF08BD08B5002211463320FFF7BC
:104B900029FF08BD08B5002211463520FFF722FF86
:104BA00008BD08B5014604223120FFF71BFF08BDF0
:104BB00008B5002211460F20FFF714FF08BD08B505
:104BC000014604220D20FFF70DFF08BD08B50022A5
:104BD00011460120FFF706FF08BD08B50022114667
:104BE0000320FFF7FFFE08BD08B50022114605208F
:104BF000FFF7F8FE08BD08B5002211462920FFF78F
:104C000039FF08BD08B5002211462320FFF732FF07
:104C100008BD08B5002211463D20FFF72BFF08BD57
:104C200008B5014601223B20FFF724FF08BD08B567
:104C3000002211460720FFF7D5FE08BD08B5002267
:104C400011461720FFF7CEFE08BD08B50022114619
:104C50000920FFF70FFF08BD70B5CCB006460D4622
:104C60001446002101914FF4947202A8FBF7AAFBAD
:104C7000B4F5967F0FD28DF80460224629460DF1D7
:104C80000500FBF705FB621C92B201A90D20FFF79E
:104C9000F1FE4CB070BD4FF0FF30FAE770B5CCB00C
:104CA00006460D461446002101914FF4947202A865
:104CB000FBF788FBB4F5967F0FD28DF8046022468F
:104CC00029460DF10500FBF7E3FA621C92B201A937
:104CD0001120FFF7CFFE4CB070BD4FF0FF30FAE768
:104CE00008B5FEF7E9FD08BD0268D36823F49073A8
:104CF000D3600268536923F001035361202380F8D5
:104D00003A30704790F83930DBB2212B01D00220C5
:104D100070478368B3F5805F17D0036A5A1C02623C
:104D20001A7803685A60C38C9BB2013B9BB2C38460
:104D30004BB90268D36823F08003D3600268D3685C
:104D400043F04003D36000207047036A1B88026869
:104D5000C3F30803536003691BB9036A0233036298
:104D6000E1E7036A01330362DDE7000070B5044642
:104D70000268136923F44053C1680B4313618368CD
:104D80000269134342691343C2691A430168CB683D
:104D900023F4164323F00C031343CB6002685369DA
:104DA00023F4407381690B435361C369B3F5004F2A
:104DB00036D00368654A934200F09A8002F580621B
:104DC000934200F0958000F0ABFE0026051846EBFC
:104DD00006012D1846EB0101CB0043EA5573EA00AA
:104DE0001546194663689A009B0F281846EB010187
:104DF000FDF760FB564DA5FB00325109642303FB10
:104E000011031B013233A5FB03235B0903F0F002FE
:104E100002EB011203F00F03216813448B6093E04F
:104E200003684A4A934233D002F5806293422FD0FE
:104E300000F076FE0026051846EB06012D1846EB1D
:104E40000101CB0043EA5573EA0015461946626832
:104E50003346921846EB0303281846EB0101FDF791
:104E600029FB3B4DA5FB00325109642303FB1103D1
:104E7000DB003233A5FB03235B095A0002F4F8720E
:104E800002EB011203F00703216813448B605BE01F
:104E900000F056FE0026051846EB06012D1846EBDD
:104EA0000101CB0043EA5573EA00154619466268D2
:104EB0003346921846EB0303281846EB0101FDF731
:104EC000F9FA234DA5FB00325109642303FB1103BA
:104ED000DB003233A5FB03235B095A0002F4F872AE
:104EE00002EB011203F00703216813448B602BE0EF
:104EF00000F026FE0026051846EB06012D1846EBAD
:104F00000101CB0043EA5573EA0015461946636870
:104F10009A009B0F281846EB0101FDF7CBFA0C4DC8
:104F2000A5FB00325109642303FB11031B0132333B
:104F3000A5FB03235B0903F0F00202EB011203F06F
:104F40000F03216813448B6070BD00BF0010014047
:104F50001F85EB512DE9F84305460F461646994645
:104F6000DDF820802C68246837EA04030CBF012494
:104F70000024B4421FD1B8F1FF3FF3D0B8F1000FC5
:104F800005D001F09BF8A0EB09004045EAD92A685A
:104F9000D36823F4D073D3602A68536923F00103E4
:104FA0005361202385F8393085F83A30002385F89D
:104FB0003830032000E00020BDE8F88358B310B576
:104FC000044690F839300BB3242384F83930226832
:104FD000D36823F40053D3602046FFF7C7FE22684E
:104FE000136923F4904313612268536923F02A0361
:104FF00053612268D36843F40053D3600020E06318
:10500000202384F8393084F83A3010BD80F83830E5
:10501000FDF740FDD8E701207047A0B110B5044668
:10502000242380F839300268D36823F40053D36016
:10503000FDF7A4FD0020E06384F8390084F83A000D
:1050400084F8380010BD012070472DE9F04383B08B
:105050001E4690F83930DBB2202B59D104460D465C
:105060009046002958D0002A58D090F83830012BAB
:1050700056D0012380F838304FF00009C0F83C903A
:10508000212380F8393001F019F80746A4F824806C
:10509000A4F8268084F8389017E000963B4600225A
:1050A00080212046FFF756FF00283BD12B8822683D
:1050B000C3F30803536023690BB9023505E00135DA
:1050C00003E015F8012B23685A60E38C9BB29BB177
:1050D000E28C92B2013A92B2E284A368B3F5805FA7
:1050E000DBD000963B46002280212046FFF732FFAE
:1050F0000028E6D003200CE000963B460022402129
:105100002046FFF727FF78B9202384F8393000E0E4
:10511000022003B0BDE8F0830120FAE70120F8E7A0
:105120000220F6E70320F4E70320F2E72DE9F0433D
:1051300083B01E4690F83A30DBB2202B5DD1044696
:105140000D46904600295CD0002A5CD090F838309B
:10515000012B5AD0012380F838304FF00009C0F8F5
:105160003C90222380F83A3000F0A8FF0746A4F8CC
:105170002C80A4F82E8084F838901DE000963B46E1
:10518000002220212046FFF7E5FE00283FD12369B9
:1051900033B923685B68C3F3080325F8023B0BE0CF
:1051A00023685B68DBB225F8013B05E023685B6898
:1051B00003F07F0305F8013BE38D9BB2C3B1E28DA1
:1051C00092B2013A92B2E285A368B3F5805FD5D07E
:1051D00000963B46002220212046FFF7BBFEC0B9C7
:1051E0002369002BE2D123685B6805F8013BE3E704
:1051F000202384F83A30002000E0022003B0BDE80C
:10520000F0830120FAE70120F8E70220F6E7032007
:10521000F4E70320F2E790F83A30DBB2202B20D1FC
:1052200009B312B390F83830012B20D08162828507
:10523000C2850023C363222280F83A2080F83830E8
:105240000168CA6842F48072CA6001684A6942F023
:1052500001024A610168CA6842F02002CA60184629
:1052600070470220704701207047012070470220DC
:10527000704710B504460268D36823F4F073D36016
:105280000268536923F00103536103685A6912F0FD
:10529000800F0BD05A6922F080025A61036B2BB148
:1052A00000221A65006B00F0E1FDD0B923685A694D
:1052B00012F0400F0BD05A6922F040025A61636B22
:1052C0002BB100221A65606B00F0D0FD90B9002070
:1052D000E084E085E063202384F83A3084F83930B4
:1052E00010BD206B00F01FFE2028DFD11023E363E8
:1052F0000320F5E7606B00F016FE2028E7D11023AD
:10530000E3630320ECE7704708B50168CA6822F040
:105310004002CA60202280F83920FFF7F4FF002005
:1053200008BD704708B590F83A30DBB2222B46D161
:105330008368B3F5805F0FD003690BBB03685A68BD
:10534000836A591C81621A70C38D9BB2013B9BB268
:10535000C385F3B1002008BD826A036943B90368BD
:105360005B68C3F308031380836A02338362EBE74D
:1053700003685B68DBB21380836A01338362E3E70F
:1053800003685B68826A511C816203F07F031370BB
:10539000DAE70268D36823F02003D3600268D36899
:1053A00023F48073D3600268536923F001035361CF
:1053B000202380F83A30FFF7B4FF0020CBE702202B
:1053C000C9E7704710B5044602681368D16852698E
:1053D00013F00F0005D113F0200F02D011F0200FB1
:1053E00013D128B112F0010213D111F4907F10D122
:1053F00013F0800F02D011F0800F6CD113F0400F2A
:1054000002D011F0400F6AD110BD2046FFF78AFF8D
:10541000FAE713F0010F06D011F4807F03D0E06BA0
:1054200040F00100E06313F0040F04D01AB1E06B08
:1054300040F00200E06313F0020F04D01AB1E06BF9
:1054400040F00400E06313F0080F07D011F0200FC4
:1054500000D11AB1E26B42F00802E263E26B002A6B
:10546000D2D013F0200F02D011F0200F21D12368E9
:105470005B6903F04003E26B12F0080F00D123B325
:105480002046FFF731FC23685A6912F0400F18D00C
:105490005A6922F040025A61636B73B1124A1A656D
:1054A000606B00F02DFD0028AED0606B036D984757
:1054B000AAE72046FFF736FFD9E72046FFF781FF2E
:1054C000A2E72046FFF77DFF9EE72046FFF779FF22
:1054D0000023E36398E72046FFF714FC94E7204697
:1054E000FFF712FF90E700BFED54000808B5806B8E
:1054F0000023C385C384FFF764FF08BD002800F0C4
:10550000D98170B582B00446036813F0010F3BD017
:10551000A64B9B6803F00C03042B2CD0A34B9B6879
:1055200003F00C03082B21D06368B3F5803F4FD004
:10553000B3F5A02F52D09D4B1A6822F480321A6026
:105540001A6822F480221A606368002B50D000F0A1
:10555000B5FD0546954B1B6813F4003F14D100F0D0
:10556000ADFD401B6428F5D90320AAE18F4B5B6891
:1055700013F4800FD8D08D4B1B6813F4003F03D079
:105580006368002B00F09881236813F0020F54D059
:10559000864B9B6813F00C0F3ED0844B9B6803F046
:1055A0000C03082B33D0E368002B67D0804B01221B
:1055B0001A6000F083FD05467C4B1B6813F0020F58
:1055C00053D100F07BFD401B0228F5D9032078E180
:1055D000764A136843F480331360B5E7734B1A6857
:1055E00042F480221A601A6842F480321A60ABE7F3
:1055F00000F064FD05466D4B1B6813F4003FC3D0FB
:1056000000F05CFD401B6428F5D9032059E1674B8D
:105610005B6813F4800FC6D1644B1B6813F0020F54
:1056200003D0E368012B40F04981604A136823F0FE
:10563000F803216943EAC1031360236813F0080FDC
:1056400040D0636963B35B4B01221A6000F036FD02
:105650000546564B5B6F13F0020F33D100F02EFD61
:10566000401B0228F5D903202BE1504A136823F090
:10567000F803216943EAC1031360DEE74C4B0022C3
:105680001A6000F01BFD0546484B1B6813F0020F23
:10569000D3D000F013FD401B0228F5D9032010E100
:1056A000444B00221A6000F009FD05463F4B5B6F3A
:1056B00013F0020F06D000F001FD401B0228F5D9BF
:1056C0000320FEE0236813F0040F78D0374B1B6CE7
:1056D00013F0805F0DD100230193344B1A6C42F01C
:1056E00080521A641B6C03F080530193019B0125C7
:1056F00000E00025304B1B6813F4807F21D0A368A5
:10570000012B32D0052B36D0284B1A6F22F0010224
:105710001A671A6F22F004021A67A368002B34D0AC
:1057200000F0CCFC0646214B1B6F13F0020F45D155
:1057300000F0C4FC801B41F288339842F3D9032067
:10574000BFE01D4A136843F48073136000F0B6FC99
:105750000646194B1B6813F4807FD0D100F0AEFCD5
:10576000801B0228F5D90320ABE0104A136F43F0E9
:1057700001031367D1E70D4B1A6F42F004021A6759
:105780001A6F42F001021A67C7E700F097FC06465D
:10579000064B1B6F13F0020F10D000F08FFC801B24
:1057A00041F288339842F3D903208AE0003802405E
:1057B00000004742800E474200700040E5B9A369EF
:1057C000002B7DD0464A926802F00C02082A51D084
:1057D000022B17D0434B00221A6000F06FFC0446E6
:1057E0003F4B1B6813F0007F42D000F067FC001BAA
:1057F0000228F5D9032064E0394A136C23F0805362
:105800001364DCE7374B00221A6000F057FC0546B2
:10581000334B1B6813F0007F06D000F04FFC401B99
:105820000228F5D903204CE0E369226A1343626A37
:1058300043EA8213A26A5208013A43EA0243E26A47
:1058400043EA0263264A5360264B01221A6000F0A5
:1058500035FC0446224B1B6813F0007F06D100F094
:105860002DFC001B0228F5D903202AE0002028E0A7
:10587000002026E0012B26D0194B5B6803F4800141
:10588000E269914221D103F03F02216A8A421ED18E
:10589000616A47F6C0721A408A421AD103F4403254
:1058A000A16A8A4217D103F07063E26A934214D16D
:1058B000002006E001207047012002E0012000E006
:1058C000002002B070BD0120FBE70120F9E70120B4
:1058D000F7E70120F5E70120F3E70120F1E700BF3A
:1058E0000038024060004742F8B52F4B9B6803F038
:1058F0000C03042B53D0082B53D12B4B5A6802F0C6
:105900003F025B6813F4800F28D0274B5B68C3F31A
:10591000881358010021C01A61F100018E0146EA86
:10592000906687013C1A66EB0105E90041EA547173
:10593000E000C01841F100014B0243EAD053440299
:10594000204619460023FCF7B5FD174B5B68C3F3EF
:10595000014301335B00B0FBF3F023E0124B5B68C3
:10596000C3F388135C010025E41A65F10005AE015C
:1059700046EA9466A701381B66EB0501CC0044EAB1
:105980005074C500E81844F100018B0243EA9053BB
:105990008402204619460023FCF78CFDD5E7034816
:1059A00000E00348F8BD00BF0038024000127A0052
:1059B0000024F400002800F09B8070B50D460446DA
:1059C0004F4B1B6803F00F038B4208D2CBB24C4AFB
:1059D0001370136803F00F038B4240F08B80236831
:1059E00013F0020F17D013F0040F04D0454A936848
:1059F00043F4E0539360236813F0080F04D0414A46
:105A0000936843F4604393603E4A936823F0F00345
:105A1000A1680B439360236813F0010F32D06368D1
:105A2000012B21D09A1E012A25D9364A126812F07C
:105A3000020F61D033498A6822F0030213438B605E
:105A400000F03CFB06462F4B9B6803F00C0362689A
:105A5000B3EB820F16D000F031FB801B41F288338C
:105A60009842F0D9032042E0264A126812F4003F1F
:105A7000E0D101203BE0234A126812F0007FD9D127
:105A8000012034E01E4B1B6803F00F03AB4207D923
:105A9000EAB21B4B1A701B6803F00F03AB422DD107
:105AA000236813F0040F06D0164A936823F4E053DA
:105AB000E1680B439360236813F0080F07D0114A85
:105AC000936823F46043216943EAC1039360FFF7BD
:105AD0000BFF0C4B9B68C3F303130B4AD35CD840FA
:105AE0000A4B18600A4B186800F09CFA002070BD41
:105AF000012070470120FAE70120F8E70120F6E7CE
:105B0000003C024000380240BC610008A0000020B8
